:020000040800F2
:1000000000000220451B0108DD190108DF19010865
:10001000E1190108E3190108E519010800000000D1
:10002000000000000000000000000000A1A4000883
:10003000E719010800000000F1A40008E91901080F
:10004000951B0108951B0108951B0108951B0108CC
:10005000951B0108951B0108951B0108951B0108BC
:10006000951B0108951B0108951B0108951B0108AC
:10007000951B0108951B0108951B0108251A01080D
:10008000951B0108951B0108951B0108951B01088C
:10009000951B0108951B0108951B0108951B01087C
:1000A000951B0108951B0108FD190108951B010806
:1000B000951B0108951B0108951B0108951B01085C
:1000C000951B0108951B0108951B0108951B01084C
:1000D000951B0108951B0108951B0108951B01083C
:1000E000951B0108951B0108951B0108951B01082C
:1000F000951B0108951B0108951B0108951B01081C
:10010000951B0108091A0108951B0108951B010898
:10011000951B0108951B0108951B0108951B0108FB
:10012000751A0108951B0108951B01083D1A010865
:10013000951B0108951B0108951B0108951B0108DB
:10014000951B0108951B0108951B0108311A010830
:10015000951B0108591A0108951B0108951B0108F8
:10016000951B0108951B0108951B0108951B0108AB
:10017000951B0108951B0108951B01080000000054
:08018000951B0108951B010805
:1001900001F0FF01102A2BDB10F0070F08D010F838
:1001A000013B013A8B422DD010F0070F42B3F6D13C
:1001B000F0B441EA012141EA014122F007047FF055
:1001C00000070023F0E80256083C85EA010586EAAC
:1001D000010685FA47F5A3FA87F586FA47F6A5FAE8
:1001E00087F68EB9EED1F0BC01F0FF0102F00702F4
:1001F00032B110F8013B013A83EA010313B1F8D19F
:100200000020704701387047002D06BF354603387F
:10021000073815F0010F07D1013015F4807F02BFB8
:10022000013015F4C03F0130F0BC0138704700BF09
:10023000034613F8012B002AFBD1181A0138704726
:1002400010F8012B11F8013B012A28BF9A42F7D080
:10025000D01A704781F0004102E000BF83F00043F4
:1002600030B54FEA41044FEA430594EA050F08BF51
:1002700090EA020F1FBF54EA000C55EA020C7FEA15
:10028000645C7FEA655C00F0E2804FEA5454D4EB92
:100290005555B8BF6D420CDD2C4480EA020281EA5C
:1002A000030382EA000083EA010180EA020281EA94
:1002B0000303362D88BF30BD11F0004F4FEA0131E6
:1002C0004FF4801C4CEA113102D0404261EB4101F5
:1002D00013F0004F4FEA03334CEA133302D052427B
:1002E00063EB430394EA050F00F0A780A4F1010437
:1002F000D5F1200E0DDB02FA0EFC22FA05F2801871
:1003000041F1000103FA0EF2801843FA05F3594156
:100310000EE0A5F120050EF1200E012A03FA0EFCD5
:1003200028BF4CF0020C43FA05F3C01851EBE371FF
:1003300001F0004507D54FF0000EDCF1000C7EEB1C
:1003400000006EEB0101B1F5801F1BD3B1F5001F5A
:100350000CD349085FEA30004FEA3C0C04F1010479
:100360004FEA445212F5800F80F09A80BCF1004FA2
:1003700008BF5FEA500C50F1000041EB045141EA24
:10038000050130BD5FEA4C0C404141EB0101013CED
:1003900028BFB1F5801FE9D291F0000F04BF0146DC
:1003A0000020B1FA81F308BF2033A3F10B03B3F1AE
:1003B00020020CDA0C3208DD02F1140CC2F10C023E
:1003C00001FA0CF021FA02F10CE002F11402D8BF9C
:1003D000C2F1200C01FA02F120FA0CFCDCBF41EA68
:1003E0000C019040E41AA2BF01EB0451294330BD37
:1003F0006FEA04041F3C1CDA0C340EDC04F1140414
:10040000C4F1200220FA04F001FA02F340EA0300EA
:1004100021FA04F345EA030130BDC4F10C04C4F130
:10042000200220FA02F001FA04F340EA0300294610
:1004300030BD21FA04F0294630BD94F0000F83F45A
:10044000801306BF81F480110134013D4EE77FEA3D
:10045000645C18BF7FEA655C29D094EA050F08BF89
:1004600090EA020F05D054EA000C04BF194610466A
:1004700030BD91EA030F1EBF0021002030BD5FEAAE
:10048000545C05D14000494128BF41F0004130BDD6
:1004900014F580043CBF01F5801130BD01F000452A
:1004A00045F0FE4141F470014FF0000030BD7FEA9D
:1004B000645C1ABF194610467FEA655C1CBF0B4698
:1004C000024650EA013406BF52EA033591EA030FAF
:1004D00041F4002130BD00BF90F0000F04BF0021A7
:1004E000704730B54FF4806404F132044FF00005DA
:1004F0004FF0000150E700BF90F0000F04BF002153
:10050000704730B54FF4806404F1320410F00045B8
:1005100048BF40424FF000013EE700BF42004FEAB3
:10052000E2014FEA31014FEA02701FBF12F07F4330
:1005300093F07F4F81F06051704732F07F4208BFE7
:10054000704793F07F4F04BF41F40021704730B5EE
:100550004FF4607401F0004521F000411CE700BF3A
:1005600050EA010208BF704730B54FF000050AE0BD
:1005700050EA010208BF704730B511F0004502D5BE
:10058000404261EB41014FF4806404F132045FEAC0
:10059000915C3FF4D8AE4FF003025FEADC0C18BF69
:1005A00003325FEADC0C18BF033202EBDC02C2F15B
:1005B000200300FA03FC20FA02F001FA03FE40EAED
:1005C0000E0021FA02F11444BDE600BF70B54FF0F1
:1005D000FF0C4CF4E06C1CEA11541DBF1CEA1355CF
:1005E00094EA0C0F95EA0C0F00F0DEF82C4481EA37
:1005F000030621EA4C5123EA4C5350EA013518BF57
:1006000052EA033541F4801143F4801338D0A0FB43
:1006100002CE4FF00005E1FB02E506F00042E0FBF0
:1006200003E54FF00006E1FB03569CF0000F18BFF6
:100630004EF0010EA4F1FF04B6F5007F64F540749E
:1006400004D25FEA4E0E6D4146EB060642EAC62131
:1006500041EA55514FEAC52040EA5E504FEACE2E9E
:10066000B4F1FD0C88BFBCF5E06F1ED8BEF1004FA1
:1006700008BF5FEA500E50F1000041EB045170BD1D
:1006800006F0004646EA010140EA020081EA030161
:10069000B4EB5C04C2BFD4EB0C0541EA045170BD5D
:1006A00041F480114FF0000E013C00F3AB8014F1D7
:1006B000360FDEBF002001F0004170BDC4F1000420
:1006C000203C35DA0C341BDC04F11404C4F12005A1
:1006D00000FA05F320FA04F001FA05F240EA0200FC
:1006E00001F0004221F0004110EBD37021FA04F632
:1006F00042EB06015EEA430E08BF20EAD37070BDEC
:10070000C4F10C04C4F1200500FA04F320FA05F04A
:1007100001FA04F240EA020001F0004110EBD3704C
:1007200041F100015EEA430E08BF20EAD37070BDBC
:10073000C4F1200500FA05F24EEA020E20FA04F395
:1007400001FA05F243EA020321FA04F001F0004144
:1007500021FA04F220EA020000EBD3705EEA430EB5
:1007600008BF20EAD37070BD94F0000F0FD101F0E4
:100770000046400041EB010111F4801F08BF013C1D
:10078000F7D041EA060195F0000F18BF704703F05B
:100790000046520043EB030313F4801F08BF013DE2
:1007A000F7D043EA0603704794EA0C0F0CEA13559E
:1007B00018BF95EA0C0F0CD050EA410618BF52EA58
:1007C0004306D1D181EA030101F000414FF000005E
:1007D00070BD50EA410606BF1046194652EA43066C
:1007E00019D094EA0C0F02D150EA013613D195EAE0
:1007F0000C0F05D152EA03361CBF104619460AD128
:1008000081EA030101F0004141F0FE4141F4700131
:100810004FF0000070BD41F0FE4141F4780170BD21
:1008200070B54FF0FF0C4CF4E06C1CEA11541DBF86
:100830001CEA135594EA0C0F95EA0C0F00F0A7F888
:10084000A4EB050481EA030E52EA03354FEA0131B5
:1008500000F088804FEA03334FF0805545EA1313C8
:1008600043EA12634FEA022245EA111545EA106590
:100870004FEA00260EF000419D4208BF964244F127
:10088000FD0404F5407402D25B084FEA3202B61A46
:1008900065EB03055B084FEA32024FF480104FF41A
:1008A000002CB6EB020E75EB030E22BFB61A75468E
:1008B00040EA0C005B084FEA3202B6EB020E75EB21
:1008C000030E22BFB61A754640EA5C005B084FEA89
:1008D0003202B6EB020E75EB030E22BFB61A754656
:1008E00040EA9C005B084FEA3202B6EB020E75EB61
:1008F000030E22BFB61A754640EADC0055EA060E22
:1009000018D04FEA051545EA16754FEA06164FEA64
:10091000C30343EA52734FEAC2025FEA1C1CC0D110
:1009200011F4801F0BD141EA00014FF000004FF09D
:10093000004CB6E711F4801F04BF01430020B4F15E
:10094000FD0C88BFBCF5E06F3FF6AFAEB5EB030C16
:1009500004BFB6EB020C5FEA500C50F1000041EB13
:10096000045170BD0EF0004E4EEA113114EB5C04E0
:10097000C2BFD4EB0C0541EA045170BD41F48011B3
:100980004FF0000E013C90E645EA060E8DE60CEABB
:10099000135594EA0C0F08BF95EA0C0F3FF43BAFD8
:1009A00094EA0C0F0AD150EA01347FF434AF95EA8F
:1009B0000C0F7FF425AF104619462CE795EA0C0F73
:1009C00006D152EA03353FF4FDAE1046194622E740
:1009D00050EA410618BF52EA43067FF4C5AE50EA1A
:1009E00041047FF40DAF52EA43057FF4EBAE12E70A
:1009F0004FF0FF3C06E000BF4FF0010C02E000BFEB
:100A00004FF0010C4DF804CD4FEA410C7FEA6C5CCD
:100A10004FEA430C18BF7FEA6C5C1BD001B050EA70
:100A2000410C0CBF52EA430C91EA030F02BF90EA5B
:100A3000020F0020704710F1000F91EA030F58BF1A
:100A4000994208BF90422CBFD8176FEAE37040F07C
:100A5000010070474FEA410C7FEA6C5C02D150EA1A
:100A6000013C07D14FEA430C7FEA6C5CD6D152EAD5
:100A7000033CD3D05DF8040B704700BF844610469A
:100A800062468C461946634600E000BF01B5FFF799
:100A9000B7FF002848BF10F1000F01BD4DF808ED69
:100AA000FFF7F4FF0CBF012000205DF808FB00BF3A
:100AB0004DF808EDFFF7EAFF34BF012000205DF894
:100AC00008FB00BF4DF808EDFFF7E0FF94BF0120E1
:100AD00000205DF808FB00BF4DF808EDFFF7CEFFE2
:100AE00094BF012000205DF808FB00BF4DF808ED21
:100AF000FFF7C4FF34BF012000205DF808FB00BFF2
:100B00004FEA410C7FEA6C5C02D150EA013C0AD109
:100B10004FEA430C7FEA6C5C02D152EA033C02D1FB
:100B20004FF0000070474FF0010070474FEA41025C
:100B300012F5001215D211D56FF47873B3EB62522F
:100B400012D94FEAC12343F0004343EA505311F056
:100B5000004F23FA02F018BF404270474FF00000E8
:100B6000704750EA013005D111F0004008BF6FF026
:100B7000004070474FF00000704700BF53B94AB9BA
:100B8000002908BF00281CBF4FF0FF314FF0FF3095
:100B900000F00CB8ADF1080C6DE904CE10F0FCFFCC
:100BA000DDF804E0DDE9022304B07047704700BFC0
:100BB0000348044B834202D0034B03B118477047EC
:100BC0005002002050020020000000000548064BA3
:100BD0001B1AD90F01EBA301491002D0034B03B13B
:100BE000184770475002002050020020000000000B
:100BF00010B5064C237843B9FFF7DAFF044B13B165
:100C00000448AFF300800123237010BD5002002080
:100C100000000000E028010808B5054B1BB105499C
:100C20000548AFF30080BDE80840FFF7CFBF00BF25
:100C30000000000054020020E02801082DE9FF47D1
:100C400057EC106B002F0C4619463B46BBBF07F113
:100C500000431F4600232D230B700D9BDDF830A0B1
:100C6000914623F02008BCBF32461646B8F1460F25
:100C700005D0B8F1450F00D10134022100E0032175
:100C800003AB019302AB009347EC106B5346224633
:100C900000F036FEB8F1470F054619D119F0010FE3
:100CA0000ED000EB04090022002330463946FFF73E
:100CB000F5FE08B1CDF80C903022039B4B451ED3B6
:100CC000039B0E9A5B1B2846136004B0BDE8F087B7
:100CD000B8F1460F00EB0409E5D10378302B0AD1B7
:100CE0000022002330463946FFF7D8FE18B9C4F178
:100CF0000104CAF80040DAF800309944D3E7591CDF
:100D000003911A70D9E7F7B50029BABF49422D23DC
:100D10002B2309290270437029DD0DF107031D46BD
:100D20000A271A46B1FBF7F607FB1614303402F80F
:100D3000014C0C46632C03F1FF333146F1DC3031BA
:100D4000941E03F8011C411C2346AB420AD30DF14B
:100D500009039B1AAC4288BF002302330344181ACC
:100D600003B0F0BD13F8016B01F8016FEDE730231C
:100D700030318370C170031DF1E700002DE9F04FA1
:100D80008DB00C46DDF8588016461F46054600F02B
:100D9000BBFC036804931846FFF74AFA00230A9342
:100DA000D8F800300590073323F0070303F1080259
:100DB00094F818A0D4F800B0C8F80020D3E900894E
:100DC00029F000430793CDF81880C4E91289DDE9C2
:100DD00006019C4B4FF0FF32FFF792FE70BBDDE93E
:100DE0000601984B4FF0FF32FFF76CFE30BB00223C
:100DF000002340464946FFF75BFE10B12D2384F8DF
:100E00004330914A914BBAF1470F8CBF90469846B8
:100E1000032323612BF0040323604FF000090097A4
:100E200033460BAA2146284600F0D2F9013040F0A3
:100E30008D804FF0FF300DB0BDE8F08F42464B463D
:100E400040464946FFF75CFE40B14B46002BBCBF15
:100E50002D2384F843307E4A7E4BD4E763680AF042
:100E6000DF0206925A1C3BD1062363604BF480627A
:100E70000023226003930AABCDE901A309AB0093E1
:100E8000616849EC108B0DF123032846FFF7D6FE6D
:100E9000069B0999472B804629D1C81C02DB636851
:100EA000994241DDAAF1020A5FFA8AFA01395246F3
:100EB00004F150000991FFF726FF0A9A1318012A3E
:100EC0008146236102DC2268D20701D50133236108
:100ED0009DF82330002BA2D02D2384F843309EE7C9
:100EE000069A472AC2D1002BC0D10123BDE7BAF12F
:100EF000650FDBD9BAF1660F18D1002963680BDDE5
:100F0000216113B92268D00702D501330B44236154
:100F1000A1654FF00009DBE713B92268D20701D5BC
:100F20000233F4E70123F2E74FF0670A0A9B994284
:100F300005DB23682161D807EAD54B1CE7E70029C8
:100F4000D4BFC1F1020201221344E0E723685A052D
:100F500007D42369424631462846B84701302BD191
:100F600067E7BAF1650F40F2DD80D4E91201002293
:100F70000023FFF793FD002833D0374A0123314681
:100F80002846B84701303FF454AFDDE909384345FE
:100F900002DB2368D8070FD5DDE904233146284654
:100FA000B84701303FF445AF4FF0000908F1FF3872
:100FB00004F11A0AC84509DC23689B0700F1038184
:100FC000E0680B9B9842B8BF184634E701235246AD
:100FD00031462846B84701303FF42BAF09F10109EB
:100FE000E8E7099B002B39DC1B4A012331462846E0
:100FF000B84701303FF41DAFDDE9093959EA030371
:1010000002D12368D907D7D5DDE904233146284624
:10101000B84701303FF40DAF4FF0000A04F11A0B4E
:10102000099B5B42534501DC4B4693E701235A463B
:1010300031462846B84701303FF4FBAE0AF1010AB9
:10104000EEE700BFFFFFEF7F082901080429010830
:10105000102901080C290108EC2C0108A36DDDF80A
:1010600028A05345A8BF5346002B994636DC4FF0C5
:10107000000B29EAE97904F11A02A36D0693A3EBA8
:1010800009035B4531DC099B9A453ADC2368DA07A2
:1010900037D4099BAAEB0309069BAAEB03039945E6
:1010A000A8BF9946B9F1000F33DC4FF0000829EAD8
:1010B000E97904F11A0B099BAAEB0303A3EB0903DB
:1010C00043457FF779AF01235A4631462846B84752
:1010D00001303FF4AEAE08F10108ECE7424631467C
:1010E0002846B8470130C2D1A3E60123314628463D
:1010F0000692B84701303FF49CAE069A0BF1010B03
:10110000BBE7DDE9042331462846B8470130C0D1AA
:101110008FE6069A4B46424431462846B84701308E
:10112000C3D186E6DDF828A0BAF1010F01DCDB07A8
:1011300036D50123424631462846B84701303FF4B0
:1011400078AEDDE9042331462846B84701303FF444
:1011500070AED4E91201002200230AF1FF3AFFF732
:101160009DFCC0B9534608F1010231462846B847F4
:1011700001300CD15DE601235A4631462846B84776
:1011800001303FF456AE08F10108D045F3DB4B4681
:1011900004F15002DFE64FF0000804F11A0BF4E707
:1011A00001234246E1E701234A4631462846B84733
:1011B00001303FF43EAE08F10108E3680B995B1A79
:1011C0004345F0DCFCE64FF0000804F11909F4E7B0
:1011D0002DE9F047164698468A680B69DDF820909D
:1011E0009342B8BF1346336091F8432007460C463C
:1011F0000AB1013333602368990642BF3368023372
:101200003360256815F0060506D104F1190AE36874
:1012100032689B1AAB4226DC94F843302268003BCC
:1012200018BF012392062BD404F1430241463846ED
:10123000C84701301ED02368226903F00603042B3F
:1012400002BFE5683368ED1AA3680CBF25EAE575AF
:1012500000259342C4BF9B1AED1800261A34B542EC
:101260001AD1002008E00123524641463846C847BB
:10127000013003D14FF0FF30BDE8F0870135C6E7FC
:10128000E1185A1C302081F84300224494F845109C
:1012900082F843100233C7E701232246414638460D
:1012A000C8470130E6D00136D9E700002DE9FF47F5
:1012B0000F7E0C9E782F914680460C469A4601F18F
:1012C000430207D8622F0AD8002F00F0D180582F90
:1012D00000F0B88004F1420684F842703AE0A7F1C9
:1012E0006303152BF6D801A151F823F0451300082C
:1012F00059130008D5120008D5120008D5120008AD
:10130000D512000859130008D5120008D51200089C
:10131000D5120008D51200085714000883130008DE
:1013200011140008D5120008D5120008791400081D
:10133000D512000883130008D5120008D512000842
:101340001914000833681A1D1B68326004F1420644
:1013500084F8423001239CE033682068191D316015
:10136000060601D51D6803E04506FBD5B3F900501C
:10137000002D03DA2D236D4284F8433058480A23A8
:1013800011E021683368080653F8045B02D449066B
:1013900048BFADB26F2F5248336014BF0A230823F1
:1013A000002184F843106668A660002E05DB2168E2
:1013B0002E4321F0040121604BD01646B5FBF3F11A
:1013C00003FB1157C75D06F8017D2F46BB420D4652
:1013D000F4D9082B0BD12368DF0708D5236961688E
:1013E0009942DEBF302306F8013C06F1FF36921B1E
:1013F0002261CDF800A04B4603AA21464046FFF7E4
:10140000E7FE01304AD14FF0FF3004B0BDE8F0876D
:10141000236843F0200323603248782784F845701E
:10142000236831681F0651F8045B02D45F0648BF89
:10143000ADB23160D90744BF43F0200323601DB132
:101440001023ADE72648E9E7236823F02003236053
:10145000F6E71646BDE7336825686169181D3060F8
:101460002E061B6801D5196002E06806FBD51980BD
:10147000002323611646BCE733681A1D32601E68DC
:10148000626800213046FEF783FE08B1801B606071
:1014900063682361002384F84330AAE72369324656
:1014A00049464046D0470130ADD023689B0713D44E
:1014B000E068039B9842B8BF1846A6E7012332466E
:1014C00049464046D04701309DD00135E368039935
:1014D0005B1AAB42F2DCEBE7002504F11906F5E7F5
:1014E0001429010825290108002310B50446C0E984
:1014F0000033C0E90433836081814366C281836124
:10150000194608225C3000F0F6F80D4B63620D4B73
:10151000A3620D4BE3620D4B23630D4B24629C428F
:1015200006D003F16802944202D0D0339C4205D128
:1015300004F15800BDE8104000F054B910BD00BFE0
:101540006D16000893160008CB160008EF16000869
:101550006C020020024A0349034800F069B800BF4A
:1015600000000020712E00081000002041680C4B84
:10157000994210B5044601D001F07AFCA168094BEC
:10158000994202D0204601F073FCE168064B994273
:1015900004D02046BDE8104001F06ABC10BD00BF79
:1015A0006C020020D40200203C03002010B50B4B3D
:1015B0000B4C0C4A1A60204600220421FFF794FFCE
:1015C00004F1680001220921FFF78EFF04F1D00029
:1015D0000222BDE810401221FFF786BFA4030020BD
:1015E0006C02002055150008014800F0FCB800BF4F
:1015F000AD030020014800F0F7B800BFAD030020A4
:1016000010B50446FFF7F0FF236A1BB1BDE8104098
:10161000FFF7F0BF044B2362044B1B68002BF5D18E
:10162000FFF7C4FFF2E700BF6D150008A403002018
:101630002DE9F8430746884614460026D4E901956B
:10164000B9F1010905D52468002CF7D13046BDE871
:10165000F883AB89012B07D9B5F90E30013303D0DC
:1016600029463846C04706436835E9E710B50C46B9
:10167000B1F90E1000F06EF80028ABBF636DA389BE
:101680001B1823F48053ACBF6365A38110BD0020F9
:1016900070472DE9F0411F468B89DB0505460C4656
:1016A000164605D5B1F90E100223002200F040F8CD
:1016B000A389B4F90E1023F48053A38132463B462C
:1016C0002846BDE8F04100F057B810B50C46B1F916
:1016D0000E1000F02DF8431CA38915BF606523F49C
:1016E000805343F48053A38118BFA38110BDB1F987
:1016F0000E1000F00DB802440346934200D170472B
:1017000003F8011BF9E70000004870474C01002076
:1017100038B5064D0023044608462B6010F0DCF96E
:10172000431C02D12B6803B1236038BDA8030020FD
:1017300038B5074D04460846114600222A601A466D
:1017400010F0D4F9431C02D12B6803B1236038BDDB
:10175000A803002038B5074D04460846114600226C
:101760002A601A4610F09CF9431C02D12B6803B181
:10177000236038BDA803002038B5074D044608464D
:10178000114600222A601A4610F098F9431C02D133
:101790002B6803B1236038BDA803002070B50D4D40
:1017A0000D4C641BA4100026A64209D10B4D0C4C15
:1017B00011F096F8641BA4100026A64205D170BD56
:1017C00055F8043B98470136EEE755F8043B984737
:1017D0000136F2E7F0AC0208F0AC0208F0AC020807
:1017E000F4AC02087047704770472DE9F74F036962
:1017F0000C69A34207467EDB013C01F11408A300FB
:1018000000F11405009305EB8403019358F824308C
:1018100055F8242001339A4208EB8409B2FBF3F611
:101820002ED34FF0000AC446AE46D3465CF8043BC4
:1018300098B206FB00A0020C1B0C06FB0323DEF88B
:10184000002080B292B2121A5A44DEF800004FEA29
:10185000134A9BB2C3EB224303EB104392B242EA1A
:101860000342E1454EF8042B4FEA234BDED2009BA6
:10187000EB582BB9019B043B9D421A462FD33C6188
:10188000384601F069F9002825DB2946002058F880
:10189000042BD1F800C01FFA82FE1FFA8CF3A3EBD1
:1018A0000E030344120CC2EB234202EB1C429BB218
:1018B00043EA0243C14541F8043B4FEA2240E6D2E5
:1018C00055F8242005EB840322B9043B9D421A46B7
:1018D0000BD33C610136304603B0BDE8F08F12688F
:1018E000043B002ACBD1013CC6E71268043B002A26
:1018F000EFD1013CEAE70020EEE700000000000025
:101900002DE9F04FC76999B08DED040B55EC104BE4
:10191000229E099183460E9213937FB9102000F006
:10192000F3FD0246CBF81C0020B9A54BEF21A548DA
:1019300001F0E4FAC0E901770760C760DBF81C300A
:10194000196859B15A684A60012393408B60584620
:1019500000F0D0FEDBF81C3000221A602B1EB9BF4D
:1019600023F00043059300233360059F964BBCBFD3
:1019700001223260BB4312D1139A42F20F731360FB
:10198000C7F31303234300F04385239BDFF84CA2E6
:10199000002B00F045850AF1030300F03FBD9DEDEB
:1019A000047B002251EC170B00238DED0C7BFFF71D
:1019B00075F8804658B1139A01231360239B13B125
:1019C000239A824B1360DFF818A200F029BD9DED29
:1019D0000C0B16AA17A9584601F06EF9C7F30A5660
:1019E0008146002E77D00D9BCDF85080C3F31303B2
:1019F000DDE90C0143F07F5343F44013A6F2FF36B8
:101A000019460022724BFEF729FC67A3D3E9002395
:101A1000FEF7DCFD66A3D3E90023FEF721FC0446B4
:101A200030460D46FEF768FD63A3D3E90023FEF7B9
:101A3000CDFD02460B4620462946FEF711FC044622
:101A40000D46FFF773F8002207460023204629467B
:101A5000FFF72EF840B13846FEF74EFD22462B46E2
:101A6000FFF71CF800B9013F162F51D8594B03EB73
:101A7000C703D3E90023DDE90C01FFF719F80028BB
:101A800048D0013F00231293169B9B1B5A1E44BF54
:101A9000C3F101080023089254BF4FF000080893D7
:101AA000002F39DB089B0F973B44089300230A93D0
:101AB000099B092B61D8052BC4BF043B0993099BE3
:101AC000A3F10203CCBF00240124032B61D8DFE87B
:101AD00003F05052352ADDE916631E4406F2324304
:101AE000202BC1BFC3F140039F4006F2124324FAEA
:101AF00003F3D6BFC3F1200347EA030004FA03F05F
:101B0000FEF7EAFC0122A1F1F873013E149277E797
:101B10000123B8E71290B7E77B420A930023A8EBB2
:101B200007080F93C4E701230B930E9BFB18009348
:101B30000133012B0393B8BF012306E001230B936C
:101B40000E9B002B28DD00930393DBF81C00002183
:101B5000042202F114059D4223D94160584600F049
:101B600089FD824600283DD11B4B024640F2AF1151
:101B7000DDE60023E3E70023D6E7012400230993F1
:101B80000B944FF0FF3300930393002212230E9225
:101B9000DBE701230B93F4E70123009303931A4639
:101BA000F5E701315200D4E761436F63A787D23F65
:101BB000B3C8608B288AC63FFB799F501344D33F3C
:101BC000432901085A2901080000F07FED2C010883
:101BD0000000F83FC0300108B32901083F2901087F
:101BE000EC2C0108DBF81C301860039B0E2B00F274
:101BF000A180002C00F09E80002F33DD9C4B07F06D
:101C00000F0203EBC20393ED007BF8058DED067B1D
:101C10004FEA271416D5974BDDE90C01D3E90823C9
:101C2000FEF7FEFDCDE9040104F00F040326914DFB
:101C300054B9DDE90623DDE90401FEF7F1FDCDE944
:101C4000040128E00226F2E7E10708D5DDE90601F4
:101C5000D5E90023FEF7BAFCCDE906010136641090
:101C60000835E5E700F0AF807C42814B814D04F000
:101C70000F0203EBC203D3E90023DDE90C01FEF7F9
:101C8000A5FCCDE90401241100230226002C40F01C
:101C90008F80002BD3D1129BDDE90445002B00F08F
:101CA0009480754B002220462946FEF701FF00284C
:101CB00000F08B80039B002B00F08780009B002BA3
:101CC00034DD7B1E069320466C4B00222946FEF72E
:101CD0007DFCCDE90401009C01363046FEF70CFC8A
:101CE000DDE90423FEF772FC654B0022FEF7B8FA2B
:101CF0000546A1F15076002C6AD1DDE90401614B63
:101D00000022FEF7ABFA02460B46CDE904232A4631
:101D10003346FEF7EBFE002840F08782DDE9040140
:101D20002A4606F10043FEF7C3FE38BBDDE90C345A
:101D3000CDE90434179B002BC0F258810E2F00F31D
:101D400055814B4B03EBC70393ED007B0E9B002BA0
:101D50008DED007B80F2E580039B002B00F3E1809A
:101D60000CD1484B002251EC170BFEF72FFCDDE99C
:101D70000423FEF7B1FE002800F05582002425461A
:101D80000E9BDB430693564600272146584600F03B
:101D9000B1FC002D00F0BD802FB1AF4203D0394619
:101DA000584600F0A7FC2946584600F0A3FCB0E0D6
:101DB000E20705D5D5E90023FEF708FC013601232B
:101DC0006410083562E7022665E7039C069784E7FE
:101DD000274B0B9903EBC40353E902235444002916
:101DE00054D029490020FEF71BFD33462A46FEF752
:101DF00035FACDE910015646DDE90401FEF796FEFD
:101E00000546FEF779FB02460B46DDE90401FEF7C5
:101E100025FA303502460B46CDE9042306F8015B6E
:101E2000DDE91023FEF744FE002872D1DDE904232A
:101E300011490020FEF712FADDE91023FEF738FE03
:101E4000002840F0B480A6423FF470AFDDE91001F5
:101E50000A4B0022FEF7BAFB084BCDE91001002225
:101E6000DDE90401FEF7B2FBCDE90401C4E700BFE0
:101E7000C0300108983001080000F03F0000244005
:101E800000001C40000014400000E03F314628469E
:101E9000FEF79CFBCDE9100115945646DDE90401DF
:101EA000FEF744FE0546FEF727FB02460B46DDE93A
:101EB0000401FEF7D3F9303506F8015B02460B4604
:101EC000A642CDE904234FF0000224D1AB4BDDE95B
:101ED0001001FEF7C5F902460B46DDE90401FEF7E5
:101EE00005FE002863D1DDE91023A4490020FEF798
:101EF000B5F902460B46DDE90401FEF7D9FD0028DD
:101F00003FF414AF159E731E159316F8013C302B49
:101F1000F8D0069F3BE09A4BFEF758FBCDE9040151
:101F2000BCE7DDE904455646DDE9002320462946A5
:101F3000FEF776FCFEF7FAFD8046FEF7DDFADDE9F6
:101F40000023FEF743FB02460B462046294608F1D4
:101F50003004FEF783F906F8014B039DA6EB0A0453
:101F6000A54202460B4634D1FEF77AF9DDE900239B
:101F700004460D46FEF7BAFDC0B9DDE90023204650
:101F80002946FEF78BFD10B118F0010F0ED149461E
:101F9000584600F0AFFB00233370139B01371F60DE
:101FA000239B002B00F03C821E6039E206973346EB
:101FB0001E4613F8012D392A07D19A45F8D1069A01
:101FC0000132069230228AF800201A7801321A7003
:101FD0009FE76B4B0022FEF7F9FA0022002304462C
:101FE0000D46FEF75BFD00289ED0D0E70B9A002A35
:101FF00000F0E180099A012A00F3C480149A002AB3
:1020000000F0B78003F233430A9C4646089A012148
:102010001A4458469844089200F020FC05465EB1E8
:10202000089B002B08DDB342089AA8BF3346A8EBF3
:102030000308F61AD31A08930A9BF3B10B9B002BE3
:1020400000F0BD808CB129462246584600F0BEFC07
:102050004A4601460546584600F016FC4946069099
:10206000584600F047FB069B99460A9B1A1B04D072
:102070004946584600F0AAFC81460121584600F026
:10208000EDFB0F9B0446002B00F0CE811A46014663
:10209000584600F09BFC099B012B044600F39580F9
:1020A000049B002B40F08D80059BC3F31303002B92
:1020B00040F08980059B23F000431B0D1B052BB1CD
:1020C000089B0133089308F1010801230A930F9B31
:1020D000002B00F0AF81236904EB8303186900F043
:1020E00071FBC0F12000089B184410F01F0077D04E
:1020F000C0F12003042B6BDD089BC0F11C000344DE
:10210000804406440893B8F1000F05DD4946424675
:10211000584600F0B5FC8146089B002B05DD2146A2
:102120001A46584600F0ACFC0446129B002B59D0CE
:102130002146484600F010FD002853DA7B1E069326
:10214000494600230A22584600F0F6FA0B9B8146C6
:10215000002B00F07181002329460A22584600F026
:10216000EBFA009B002B054667DC099B022B41DC48
:1021700063E0169BC3F1360346E700BF0000E03F73
:1021800000002440039B5C1E0A9BA34209DB1C1B2E
:10219000039B002BBFF639AF039BA8EB030600237C
:1021A00034E70A9B0F9A0A94E31A1A440F92039B8E
:1021B000464600242AE70A9C0B9D46462FE70A9ACA
:1021C00056E7002382E7049B80E700230A9382E717
:1021D00099D0089A1C331A4498441E44089292E7F6
:1021E0000346F6E7039B0697002B20DC0093099B30
:1021F000022B1EDD009B002B7FF4C2AD2146052281
:10220000584600F099FA01460446484600F0A4FCFE
:1022100000287FF7B5AD5646312306F8013B069BF3
:1022200001330693B0E5039C06972546F3E7039B2D
:1022300000930B9B002B00F00381002E05DD294647
:102240003246584600F01CFC05460A9B002B5AD02B
:102250006968584600F00EFA064628B9834B0246D4
:1022600040F2EF21FFF763BB2A690232920005F1C9
:102270000C010C3000F034FE01223146584600F0CB
:10228000FFFB0AF101030393009B53440B93049B50
:1022900003F001032F460A930546039B2146013BA9
:1022A00048460093FFF7A1FA3946049000F1300840
:1022B000484600F051FC2A4608902146584600F056
:1022C00067FCC268064602BB0146484600F044FC73
:1022D0000246314658460E9200F00CFA099B0E9ABF
:1022E000039E42EA03010A9B194310D1B8F1390F4A
:1022F00029D0089B002B02DD049B03F13108009BD1
:1023000083F8008041E52846BBE70122E1E7089B0E
:10231000002B04DB09990B430A990B4320D1002AB7
:10232000EDDD49460122584600F0AAFB21468146D0
:1023300000F012FC002803DCE1D118F0010FDED020
:10234000B8F1390FD8D1009A3923137033461E469D
:10235000013B16F8012C392A51D001321A7014E5CC
:10236000002A07DDB8F1390FEDD0009A08F101031A
:1023700013700AE5039B0B9A03F8018C934228D053
:10238000494600230A22584600F0D6F9AF4281465A
:102390004FF000034FF00A023946584607D100F0CB
:1023A000CBF907460546039B0133039375E700F01D
:1023B000C3F92946074600230A22584600F0BCF913
:1023C0000546F0E7009B002BCCBF1E460126564475
:1023D000002749460122584600F052FB214681461B
:1023E00000F0BAFB0028B1DC02D118F0010FADD12A
:1023F00033461E4613F8012D302AFAD0C5E49A451B
:10240000A5D1069B0133069331238AF80030BCE442
:10241000239BDFF85CA01BB10AF10803239A136029
:10242000504619B0BDE8F08F099B012B7FF738AEFD
:102430000F9B0A93012056E6009B002B7FF7D7AE37
:10244000564621464846FFF7D0F900F1300806F815
:10245000018B009BA6EB0A029342B3DD49460023A1
:102460000A22584600F068F98146EAE7B3290108D4
:102470003629010838B50546002941D051F8043CF9
:102480000C1F002BB8BFE41800F0E8F81D4A1368D1
:1024900033B9636014602846BDE8384000F0E4B802
:1024A000A34208D9206821188B4201BF19685B68D4
:1024B00009182160EDE71A465B680BB1A342FAD90F
:1024C00011685018A0420BD1206801445018834273
:1024D0001160E0D118685B68536008441060DAE767
:1024E00002D90C232B60D6E7206821188B4204BF49
:1024F00019685B68636004BF091821605460CAE70B
:1025000038BD00BFB4030020024B0146186800F03C
:1025100025B800BF0C00002070B50F4E0C46316886
:10252000054611B900F0CCFC30602146284600F089
:10253000C7FC431C03D14FF0FF34204670BDC41CC0
:1025400024F00304A042F8D0211A284600F0B8FC79
:102550000130F2D1EFE700BFB00300202DE9F843CE
:10256000CD1C25F0030508350C2D38BF0C25002D9A
:10257000064601DBA94204D90C2333600020BDE8E4
:10258000F883DFF8D48000F069F8D8F800301C46F2
:1025900044BB29463046FFF7BFFF431C044658D1D1
:1025A000D8F800402746002F43D1002C4BD0236899
:1025B0003946304604EB030900F082FC814542D1E4
:1025C00021686D1A29463046FFF7A6FF01303AD040
:1025D00023682B442360D8F800305A6862BBC8F8DF
:1025E00000700FE02268521B20D40B2A17D9611902
:1025F000A342256018BF5960636808BFC8F800107F
:1026000062514B60304600F02FF804F10B00231D9F
:1026100020F00700C21A1CBF1B1AA350AFE7626864
:10262000A3420CBFC8F800205A60EBE72346646859
:10263000AEE73C467F68B6E71A465B68A342FBD12B
:1026400000235360DEE70C233360304600F00CF8C3
:1026500094E70560D6E700BFB40300200148FFF708
:10266000C2B800BFAC0300200148FFF7BDB800BFEF
:10267000AC03002070B5C66904460D4676B910203B
:10268000FFF742FF0246E06120B9184B18486B2162
:1026900000F034FCC0E901660660C660E669F368D4
:1026A00083B1E369DB6853F82500B8B9012101FA69
:1026B00005F6721D9200204600F03EFC60B1C0E9B4
:1026C00001560EE021220421204600F035FCE3698A
:1026D000F060DB68002BE4D1002070BD026843F895
:1026E00025200023C0E90333F7E700BF4329010891
:1026F000C429010870B5C66905460C4676B9102094
:10270000FFF702FF0246E86120B9094B09488F2113
:1027100000F0F4FBC0E901660660C6603CB1EB69FD
:102720006268DB6853F82210216043F8224070BDD4
:1027300043290108C42901082DE9F0410D69074624
:102740000C461E4601F1140C0020DCF8003099B252
:1027500002FB01611E0C0B0C02FB063389B2013037
:1027600001EB034185424CF8041B4FEA1346ECDCB5
:102770000EB3A368AB4219DC616838460131FFF73C
:1027800079FF804628B902460C4B0D48BA2100F06B
:10279000B5FB2269023204F10C0192000C3000F00A
:1027A0009FFB21463846FFF7A5FF444604EB85030F
:1027B00001355E6125612046BDE8F081B32901083D
:1027C000C4290108B0F5803F034636BF030400204A
:1027D0001020B3F1807F3CBF1B020830B3F1805F53
:1027E0003CBF1B010430B3F1804F3CBF9B00023063
:1027F000002B05DB13F0804F00F1010008BF202003
:1028000070470368024613F007000BD0D90721D4A4
:10281000980749BF5B089B08012013605CBF1360E9
:102820000220704799B209B91B0C1020D9B209B91E
:1028300008301B0A190704BF1B090430990704BF9D
:102840009B080230D90703D45B0800F1010003D0D4
:1028500013607047002070472020704710B50C4669
:102860000121FFF707FF024628B9054B054840F252
:10287000451100F043FB01234461036110BD00BF1B
:10288000B3290108C42901082DE9F04F17460A6948
:102890003B699A42A8BF3B468946A4BF0F4699466A
:1028A0003D69D9F810A0BB68796805EB0A06B34208
:1028B00085B0B8BF0131FFF7DDFE30B90246414BAC
:1028C00041484FF4B17100F019FB00F1140404EB1E
:1028D000860E23460022734520D307F1140809F120
:1028E000140108EB850501EB8A030293EB1B153BF2
:1028F00023F0030304331537BD4238BF042301938B
:10290000029B03918B420CD8002E03DD5EF8043D40
:10291000002B55D0066105B0BDE8F08F43F8042BBD
:10292000D9E7B1F800A0BAF1000F1FD0C446A14604
:1029300000275CF8042BD9F800301FFA82FB9BB209
:102940000AFB0B333B44D9F80070120C3F0C0AFB16
:10295000027202EB13429BB243EA0243654549F817
:10296000043B4FEA1247E4D8019BE750039BB3F8BE
:1029700002900431B9F1000F20D023684746A446E5
:102980004FF0000AB7F800B0BCF8022009FB0B2298
:1029900052449BB243EA02434CF8043B57F8043BD1
:1029A0004FEA134ABCF8003009FB0A3303EB124329
:1029B000BD424FEA134AE5D8019AA35004349FE779
:1029C000013EA1E7B3290108C42901082DE9F84314
:1029D000154612F0030207460E4607D0254C013A71
:1029E000002354F82220FFF7A7FE0646AD103DD085
:1029F000FC697CB91020FFF787FD0246F86128B911
:102A00001D4B1E4840F2B31100F078FAC0E90144B2
:102A10000460C460D7F81C80D8F808404CB940F274
:102A200071213846FFF71AFF0023C8F80800044652
:102A300003604FF00009EB070AD5314622463846BD
:102A4000FFF722FF314680463846FFF753FE4646E1
:102A50006D100BD0206838B9224621463846FFF762
:102A600013FF2060C0F800900446E4E73046BDE85C
:102A7000F88300BF8C30010843290108C4290108EC
:102A80002DE9F0470C464968236903EB6218A368F7
:102A9000074691464FEA621A08F10106B3420BDB82
:102AA0003846FFF7E7FD054648B90246284B294856
:102AB0004FF4EF7100F022FA01315B00EEE70023E2
:102AC00000F1140100F110021846534533DB206970
:102AD0002AEAEA7A04F1140319F01F0901EB8A01CA
:102AE00003EB800C2BD0C9F1200E8A460022186817
:102AF00000FA09F010434AF8040B53F8042B9C45E4
:102B000022FA0EF2F3D8ACEB0403153B23F00303D7
:102B1000043304F11500604588BF0423CA500AB18C
:102B200008F10206013E38462E612146FFF7E2FD1C
:102B30002846BDE8F08742F8040F0133C5E70439A1
:102B400053F8042B41F8042F9C45F9D8EAE700BF5D
:102B5000B3290108C42901080A6903460069801ADB
:102B600030B50ED11433143103EB820401EB820132
:102B700054F8045D51F8042D954203D005D24FF06E
:102B8000FF3030BDA342F3D3FBE70120F9E700009B
:102B90002DE9F74F89460646114648461446FFF789
:102BA000DBFF051E12D129463046FFF763FD0246C2
:102BB00028B93F4B40F237213E4800F09FF90123EE
:102BC000C0E90435104603B0BDE8F08FBCBF4B46EA
:102BD000A1463046D9F80410BABF1C46012500258D
:102BE000FFF748FD024618B9314B40F24521E3E7B3
:102BF000D9F810702669C56009F1100309F11405B0
:102C000004F1140E00F1140B05EB87080EEB860699
:102C10000193D9464FF0000C019B5EF8040B53F86A
:102C200004AF01931FFA8AF3194683B2CB1A000C42
:102C30006344C0EB1A4000EB23409BB243EA0043DD
:102C4000764549F8043B4FEA204CE5D8331B153B49
:102C500023F0030315340433A64238BF04231D4474
:102C60005B441E462C4644450ED308F10301491B24
:102C700021F00301033DA84538BF00210B4453F860
:102C8000041D91B117619DE754F8041BE646080C3A
:102C90001CFA81FC714400EB2C4089B241EA0041EE
:102CA00046F8041B4FEA204CDDE7013FE7E700BF91
:102CB000B3290108C42901082DE9F7430F46012172
:102CC00059EC108B1646FFF7D5FC044630B9024686
:102CD000234B244840F20F3100F010F9C9F30A5594
:102CE000C9F313030DB143F480130193B8F100034A
:102CF00023D068460093FFF784FDDDE90012D0B1D0
:102D0000C0F1200302FA03F30B43C2406361019256
:102D1000019BA361002B0CBF012202222261A5B1FD
:102D2000A5F2334505443D60C0F1350030602046D2
:102D300003B0BDE8F0836161EAE701A8FFF761FD38
:102D4000019B636120300122E8E704EB8203A0F2DB
:102D5000324038601869FFF735FDC0EB4210E5E7F7
:102D6000B3290108C4290108B1F90C202DE9F0416B
:102D7000160705460C4654D44B68002B02DC0B6C3E
:102D8000002B48DDE66A002E45D0002312F4805265
:102D90002F68216A2B6030D0626DA389590705D551
:102DA0006368D21A636B0BB1236CD21A0023E66AF4
:102DB000216A2846B047431CA38906D129681D29EA
:102DC0002BD82A4ACA40D60727D500226260D904E8
:102DD0002269226004D5421C01D12B6803B96065C9
:102DE000616B2F60B9B104F14403994202D02846C7
:102DF000FFF740FB002363630DE001232846B04743
:102E00000246501CC9D12B68002BC6D01D2B01D007
:102E1000162B1ED12F60002022E043F040031BB28E
:102E20001BE00F69002FF6D093070E6808BF4B69AF
:102E30000F6018BF0023A6EB07088B60B8F1000FE6
:102E4000E9DD216AA66A43463A462846B04700288B
:102E500008DCB4F90C3043F04003A3814FF0FF309D
:102E6000BDE8F0810744A8EB0008E7E70100402037
:102E700038B50B6905460C4613B90025284638BD00
:102E800018B1036A0BB9FEF7BBFBB4F90C30002B89
:102E9000F3D0626ED00704D4990502D4A06DFEF77A
:102EA000A2FC28462146FFF75FFF636EDA0705465E
:102EB000E4D4A3899B05E1D4A06DFEF795FCDDE782
:102EC00038B5064D0023044608462B600EF010FE70
:102ED000431C02D12B6803B1236038BDA803002036
:102EE0000A44914200F1FF3300D1704710B511F848
:102EF000014B03F8014F9142F9D110BD1FB51446A3
:102F00001A46094B1B680546D8684CB1074B00911F
:102F1000CDE9013406492B4600F042F800F052F8A2
:102F2000044B1C46F3E700BF0C000020262A0108D2
:102F3000332A0108A72B010870B5A1FB025434B94C
:102F40002946FFF70BFB064628B9304670BD0C2218
:102F500002600026F9E72A462146FEF7CCFBF4E79B
:102F600082B001B901A942B14BB113780B6012785C
:102F7000101E18BF012002B070471046FBE76FF02B
:102F80000100F8E70346084641B1FF2A04D98A2226
:102F90001A604FF0FF3070470A7001207047000040
:102FA0000EB403B5014603AB054853F8042B006883
:102FB000019300F037F802B05DF804EB03B07047FE
:102FC0000C00002008B5062000F01AFA01200EF0CF
:102FD00061FD9368013B002B10B4936008DA94699B
:102FE000A34201DB0A2903D15DF8044B00F032B99A
:102FF0001368581C1060197008465DF8044B704740
:10300000F8B506460F461446D518AC4201D100204B
:1030100007E014F8011B3A463046FFF7DAFF431C7D
:10302000F3D1F8BD2DE9F04F0D469DB014469846FA
:10303000064618B1036A0BB9FEF7E2FA6B6ED907C0
:1030400005D4AB899A0502D4A86DFEF7CCFBAB89F9
:103050001B0701D52B699BB92946304600F038F98A
:1030600070B16B6EDC0704D54FF0FF301DB0BDE8CA
:10307000F08FAB899805F7D4A86DFEF7B5FBF3E7A1
:103080000023099320238DF82930CDF80C803023BC
:10309000DFF8AC818DF82A304FF0010923469A46BB
:1030A00013F8012B0AB1252AF9D1BAEB040B0BD086
:1030B0005B46224629463046FFF7A2FF013000F06A
:1030C000A780099A5A4409929AF80030002B00F020
:1030D0009F8000234FF0FF32CDE905230AF1010A5A
:1030E000049307938DF853301A935446052214F82D
:1030F000011B5348FDF74CF8049AD8B9D10644BFD8
:1031000020238DF85330130744BF2B238DF8533001
:103110009AF800302A2B15D0079A544600204FF019
:103120000A0C214611F8013B303B092B4BD9B0B1B9
:10313000079214E0A0EB080309FA03F31343049386
:10314000A246D2E7039B191D1B680391002BBBBF4E
:103150005B4242F0020207930793B8BF04922378C0
:103160002E2B0AD163782A2B32D1039B1A1D1B68A0
:10317000039243EAE37302340593DFF8D4A0217885
:1031800003225046FDF704F838B1049BA0EB0A0077
:103190004022824013430134049314F8011B294850
:1031A0008DF828100622FCF7F3FF00283FD0264BAD
:1031B0001BBB039B073323F0070308330393099BCF
:1031C0003B4409936AE70CFB02320C460120A8E756
:1031D00000230134059319464FF00A0C204610F8DD
:1031E000012B303A092A03D9002BC6D00591C4E738
:1031F0000CFB012104460123F0E703AB00932A46B0
:10320000124B04A93046FDF7B9FD0746781CD6D10C
:103210006B6ED90705D4AB899A0502D4A86DFEF769
:10322000E3FAAB895B063FF51FAF09981EE703ABD6
:1032300000932A46054B04A93046FEF737F8E4E729
:10324000622A01086C2A01087D0D0008013000087F
:10325000682A0108F8B50E461446054618B1036AF7
:103260000BB9FEF7CDF9A369A360A3891A0701D5AD
:10327000236943B92146284600F02AF818B14FF0D7
:10328000FF373846F8BD23682269981A6369F6B299
:103290008342374605DC21462846FFF7E9FD002832
:1032A000EDD1A368013BA36023685A1C22601E7005
:1032B0006269431C9A4204D0A389DB07E1D50A2E38
:1032C000DFD121462846FFF7D3FD0028D9D0D6E725
:1032D00038B5294B054618680C4618B1036A0BB976
:1032E000FEF78EF9B4F90C30190722D4DA0607D4A8
:1032F00009222A6043F04003A3814FF0FF3033E0FE
:10330000580712D5616B41B104F14403994202D0D0
:103310002846FFF7AFF800236363A38923F0240353
:10332000A3810023636023692360A38943F008031A
:10333000A38123694BB9A38903F42073B3F5007FFC
:1033400003D02146284600F0CBF8B4F90C3013F036
:1033500001020AD00022A26062695242A26122697F
:1033600042B913F08000C5D138BD990758BF6269D2
:10337000A260F4E70020F7E70C000020884210B5B7
:1033800001EB020402D98442234607D8431EA1421E
:1033900008D011F8012B03F8012FF8E70244014689
:1033A0008A4200D110BD13F8014D02F8014DF7E734
:1033B0001F2938B505460C4604D9162303604FF083
:1033C000FF3038BDC26B12B152F821304BB92846DC
:1033D00000F030F8224601462846BDE8384000F0AB
:1033E00017B8012B0AD0591C03D116230360012002
:1033F000E7E7002142F82410204698470020E0E744
:10340000024B01461868FFF7D3BF00BF0C00002035
:1034100038B5074D00230446084611462B600EF0D0
:1034200031FB431C02D12B6803B1236038BD00BFC0
:10343000A80300200EF024BB2DE9F04107461446F6
:103440000D4621B9BDE8F0411146FFF787B82AB90A
:10345000FFF710F825462846BDE8F08100F09EF8F9
:103460008442064602D8B4EB500FF4D821463846C1
:10347000FFF774F8804608B94546ECE7B4422246A7
:10348000294628BF3246FFF72BFD29463846FEF76E
:10349000F1FFF1E770B50C46B1F90E10002996B0B6
:1034A00015461E460DDAA38913F0800F4FF0000178
:1034B00014BF40234FF48063002031602B6016B0AE
:1034C00070BD6A4600F048F80028ECDB019901F471
:1034D0007041A1F50053594259414FF48063EBE725
:1034E0008B89F7B59D0706460C4607D504F14703BF
:1034F000236023610123636103B0F0BD01AB6A4621
:10350000FFF7C8FF009F054639463046FFF726F80B
:1035100048B9B4F90C309A05EED423F0030343F014
:103520000203A381E2E7A389206043F08003A38123
:10353000019BC4E904075BB1B4F90E10304600F0FA
:103540001DF828B1A38923F0030343F00103A381ED
:10355000A3891D43A581CFE738B5074D0023044655
:10356000084611462B600EF0BAFA431C02D12B68B4
:1035700003B1236038BD00BFA803002038B5064D55
:103580000023044608462B600EF0AEFA431C02D11D
:103590002B6803B1236038BDA803002051F8043C18
:1035A000181F002BBCBF0B58C018704738B50E4B06
:1035B0001A784FF47A73B3FBF2F30C4A054610689D
:1035C000B0FBF3F000F094F8044658B90F2D09D879
:1035D000024629464FF0FF3000F04AF8044B2046DF
:1035E0001D6038BD0120FCE7C80100204C0200200E
:1035F000CC01002008B50B4B1A6842F400721A6027
:103600001A6842F480621A601A6842F480721A6082
:10361000032000F01BF80F20FFF7C8FF0DF0B8FFE4
:10362000002008BD003C0240034A044B11681B788F
:103630000B441360704700BFB8030020C80100208E
:10364000014B1868704700BFB80300200749CA68DB
:1036500022F4E0620302120403F4E063120C134349
:1036600043F0BF6343F40033CB60704700ED00E0EC
:10367000164B30B5DC68C4F30224C4F10703251DE2
:10368000042B28BF0423062D4FF0FF358CBF033CCD
:10369000002405FA03F321EA0303A54022EA050208
:1036A000A340002843EA0203ACBF00F16040084A8F
:1036B0004FEA0313B8BF00F00F00DBB2AABF00F55A
:1036C0006140135480F8003330BD00BF00ED00E0CE
:1036D00014ED00E0002807DB044A4109012300F053
:1036E0001F00834042F82130704700BF00E100E036
:1036F0000138B0F1807F0BD24FF0E023054A5861CA
:10370000F02182F823100020072298611A61704787
:103710000120704700ED00E0036810B5084C024638
:10372000D9B210391820B1FBF0F0205CD06523F439
:103730007F7020F003005F2988BF0430906510BDC2
:103740008932010870B50446FFF77AFF0546002C60
:1037500060D0022384F835302268002384F83430A6
:10376000136823F00103136022681368D8072ED46E
:1037700013683248A1691840D4E901352B43E56844
:103780002B4325692B4365692B43E5690B432B4389
:10379000256A2B430343606A042802BFD4E90B5611
:1037A00035432B4313605369042823F0070343EA8E
:1037B000000335D1A06AE56A03438DB391B90128AE
:1037C00020D030F002012BD1E90129D51DE0FFF70F
:1037D00037FF401B0528C7D920230320636584F8E1
:1037E000350070BDB1F5005F16D1032818D801A1CE
:1037F00051F820F00B380008C93700080B380008D2
:1038000005380008B5F1C07F0AD140236365012364
:1038100084F835300120E4E70228F6D90328D3D014
:1038200053612046FFF778FFE26D3F2393408360AA
:1038300000200123606584F83530D2E73F8010F026
:1038400038B5054620B390F83530022BDCB21DD0D8
:1038500003681A6822F0010200241A6021221C6009
:103860005C609C60DC601C615A61FFF755FFEA6D8B
:103870003F239340C5E90F44C5E91144C5E913440A
:1038800083606C6585F8344085F83540204638BD46
:103890000124FBE770B590F83440866D012C30D0E0
:1038A000012480F8344090F83540012C4FF000049A
:1038B00025D1022580F8355044650468256825F433
:1038C0008025256063608368402B0EBFA260A160E5
:1038D000E260C26D08BFE1603F239340B36023689C
:1038E00043F016032360036C1BB1236843F0080305
:1038F0002360236843F001032360002070BD80F83B
:1039000034400220FAE790F83530022B03D08023B0
:103910004365012070470268052380F8353013683D
:1039200023F001031360002070470000F7B5002367
:1039300001935C4B856D1F68C36D2E6808229A4009
:10394000324204460CD001680868400708D5086870
:1039500020F004000860AA60626D42F00102626516
:1039600001229A40324208D021684969090641BFC4
:10397000AA60626D42F00202626504229A403242FD
:1039800008D021680968880741BFAA60626D42F0CB
:103990000402626510229A40324210D023681968EE
:1039A00009070CD5AA601A68500337D51B6819039C
:1039B00001D4236C00E0A36C0BB120469847E16D65
:1039C00020228A4032423AD023681868C60636D58B
:1039D000AA6094F83520052A1A6827D122F0160229
:1039E0001A605A6922F080025A61226C0AB9A26CEC
:1039F0001AB11A6822F008021A603F238B40AB60AC
:103A0000012384F83530002384F83430236D002BF3
:103A100045D0204603B0BDE8F04018471A68D205EB
:103A20005EBF1A6822F008021A60C2E7500327D569
:103A30001B68190331D4636C0BB120469847636D42
:103A40006BB3636DDA0719D522684FF41653B7FBD1
:103A5000F3F7052384F83530136823F0010313606E
:103A6000019B0133BB42019302D81368DB07F7D4F3
:103A7000012384F83530002384F83430E36CC6E742
:103A80001A6812F4807208D1196821F010011960C7
:103A9000012384F8353084F83420E36BCCE703B09D
:103AA000F0BD00BF4C02002010B5034690F8340072
:103AB00001281DD093F83540012CE0B216D105291C
:103AC00006D8DFE801F003090B0D0F11DA630020BF
:103AD000002283F8342010BD1A64F8E75A64F6E730
:103AE0009A64F4E7DA64F2E71A65F0E70120EFE799
:103AF0000220F0E7406D704770B58668802E04D1D3
:103B00004FF480734365012070BDC46B1CB1446CDD
:103B10000CB1C46C0CB94023F4E790F83440012C8C
:103B200000F0D481012480F8344090F83540012C15
:103B30004FF0000440F0C881022580F835504465FC
:103B40000468256845F4802525602361049B636033
:103B5000A44B402E0BBFA260A160E160E2609C42DA
:103B60003FD918339C4237D09F4A944236D01832FE
:103B7000944214BF4FF000624FF400129B499C42E4
:103B8000CA6040F0B18010229C42CA6040F0E480DC
:103B9000082296499C42CA6040F0168104229C4249
:103BA000CA6040F05D810123904AD360236843F0EE
:103BB00016032360636943F080036361036C0BB9F0
:103BC000836C1BB1236843F008032360236843F030
:103BD00001032360002097E72022CFE74FF4006223
:103BE000CCE7834B9C422AD903F556739C4221D0E3
:103BF000804A944220D01832944214BF4FF00062A1
:103C00004FF4001279499C428A607BD110229C4279
:103C10008A6040F0AF80082274499C428A6040F07C
:103C2000F58004229C428A6040F0278101236F4A7C
:103C30009360BBE72022E5E74FF40062E2E76E4BBA
:103C40006E499C4228D918339C4220D06C4A944239
:103C50001FD01832944214BF4FF000624FF400128C
:103C60009C42CA605CD1102264499C42CA6040F008
:103C70008F8008229C42CA6040F0D68004225F49AF
:103C80009C42CA6040F006810123CB608EE720226F
:103C9000E6E74FF40062E3E75A4B9C421FD05A4AD2
:103CA00094421ED01832944214BF4FF000624FF479
:103CB00000129C428A6041D1102250499C428A6085
:103CC00074D108229C428A6040F0BC8004224B4997
:103CD0009C428A6040F0EB8001238B6066E72022E3
:103CE000E7E74FF40062E4E73F4A944207D0183216
:103CF000944214BF4FF080624FF4801244E74FF4B7
:103D0000806241E73B4A944207D01832944214BF84
:103D10004FF080624FF4801279E74FF4806276E7CB
:103D2000374A944207D01832944214BF4FF0806251
:103D30004FF4801298E74FF4806295E7324A94423C
:103D400007D01832944214BF4FF080624FF48012B3
:103D5000B3E74FF48062B0E7234A944207D01832A9
:103D6000944214BF4FF000724FF4002211E74FF459
:103D700000720EE71F4A944207D01832944214BFD3
:103D80004FF000724FF4002246E74FF4007243E711
:103D90001B4A944207D01832944214BF4FF000726D
:103DA0004FF4002266E74FF4007263E7164A94422C
:103DB00007D01832944214BF4FF000724FF4002223
:103DC00080E74FF400727DE7074A944207D018322B
:103DD000944214BF4FF080724FF48022DFE64FF41C
:103DE0008072DCE65864024088640240006402404D
:103DF000B8600240286402405860024000600240FF
:103E0000886002401060024028600240304A9442BC
:103E100007D01832944214BF4FF080724FF48022C2
:103E200000E74FF48072FDE62A4A944207D0183228
:103E3000944214BF4FF080724FF480221FE74FF47A
:103E400080721CE7244A944207D01832944214BF6F
:103E50004FF080724FF4802239E74FF4807236E7DA
:103E60001E4B9C4207D018339C4214BF4FF4800372
:103E70004FF4803398E6402396E6154B9C4207D0DA
:103E800018339C4214BF4FF480034FF48033CEE6C6
:103E90004023CCE60F4B9C4207D018339C4214BF02
:103EA0004FF480034FF48033EFE64023EDE60A4BF6
:103EB0009C4207D018339C4214BF4FF480034FF448
:103EC00080330AE7402308E780F8344002201BE6ED
:103ED00028640240886002402860024088640240F2
:103EE0002DE9F74FDFF8A491664A00230D680124FD
:103EF0009C4004EA0506AC4340F0AF804D680327C0
:103F000005F003044FEA430807FA08FC671E012F77
:103F10006FEA0C0C34D8876807EA0C0ECF6807FAF2
:103F200008F747EA0E078760476827EA060EC5F3D9
:103F300000179F4047EA0E074760C76807EA0C0E64
:103F40008F6807FA08F747EA0E07022CC76019D1F5
:103F50004FEAD30A00EB8A0A03F0070BDAF8207065
:103F60004FEA8B0B4FF00F0E0EFA0BFE27EA0E0EE8
:103F70000F6907FA0BF747EA0E07CAF8207001E04D
:103F8000032CDAD1076804FA08F407EA0C073C436B
:103F900015F4403F046060D000240194D9F84440F7
:103FA00044F48044C9F84440D9F8444023F003075E
:103FB00007F1804704F4804407F59C37019403F02F
:103FC000030C019CD7F808E04FEA8C0C0F2404FA8C
:103FD0000CF42EEA040E2C4CA04245D004F580646B
:103FE000A04243D004F58064A04241D004F580642F
:103FF000A0423FD004F58064A0423DD004F5806427
:10400000A0423BD004F58064A04239D004F580641E
:10401000A04214BF0824072404FA0CF444EA0E0456
:10402000BC609468F74315F4801F0CBF3C403443D8
:104030009460D46815F4001F0CBF3C403443D46036
:10404000546815F4003F0CBF3C403443546014687E
:10405000ED0354BF3C40344314600133102B7FF414
:1040600045AF03B0BDE8F08F0024D5E70124D3E7C6
:104070000224D1E70324CFE70424CDE70524CBE7CE
:104080000624C9E7003C014000000240003802401D
:104090002DE9F04F434C00224FF0010A4FF00F087A
:1040A0004FF0030B0AFA02FC3CEA01030CEA01069A
:1040B00064D122F0030505F1804505F59C3502F039
:1040C0000307AB68BF0008FA07F909EA030E364B8D
:1040D000984258D003F58063984256D003F5806328
:1040E000984254D003F58063984252D003F5806320
:1040F000984250D003F5806398424ED003F5806318
:1041000098424CD003F58063984214BF08230723DC
:10411000BB40734513D1236823EA06032360636819
:1041200023EA06036360E36823EA0603E360A36807
:1041300023EA0603A360AB6823EA0903AB600568C2
:1041400053000BFA03F3D60825EA030500EB8606B5
:10415000056002F00705376AAD0008FA05F527EAA1
:1041600005073762C56825EA0305C560456825EA85
:104170000C054560856825EA030383600132102A37
:1041800090D1BDE8F08F0023C2E70123C0E70223EE
:10419000BEE70323BCE70423BAE70523B8E70623F9
:1041A000B6E700BF003C0140000002400AB1816157
:1041B00070470904FBE701684B6913F480634FF013
:1041C000000210D06FF480634B612023026380F8FB
:1041D0003D3080F83E20036C80F83C2043F004031F
:1041E000036401207047184670472DE9F8460646DB
:1041F0000F4691461D464FEA114A3368BAF1010F46
:104200000CBF5C699C6927EA0404A4B2B4FA84F484
:104210006409A14501D0002025E06A1CEED0FFF71B
:104220000FFA089BC01AA84201D8002DE5D13368C7
:10423000BAF1010F0CBF5B699B6927EA03039BB2CC
:10424000B3FA83F35B099945D7D100232022336366
:1042500086F83D2086F83E30326C86F83C3042F0DD
:10426000200232640120BDE8F8862DE9F0410446C1
:104270000F46164698462568686927EA000080B20E
:10428000C0B16B695A0517D52B6843F400732B60D6
:104290006FF480636B6120220023236384F83D2048
:1042A00084F83E30236C43F004032364002384F835
:1042B0003C300120BDE8F081731CDDD0FFF7C0F970
:1042C000A0EB0800B04201D8002ED4D123685A696F
:1042D00027EA020292B2002ACDD0002320222363D3
:1042E00084F83D2084F83E30236C1343DDE770B53D
:1042F00004460D46164623685B691B0601D500205F
:104300001EE02046FFF757FFC8B96A1CF3D0FFF73D
:1043100097F9801BA84201D8002DECD123685B6976
:1043200013F08003E7D12022236384F83D2084F832
:104330003E30226C84F83C3042F02002226401209E
:1043400070BD70B504460D46164623685B695B0771
:1043500001D500201EE02046FFF72DFFC8B96A1CDA
:10436000F3D0FFF76DF9801BA84201D8002DECD1E6
:1043700023685B6913F00403E7D12022236384F8E8
:104380003D2084F83E30226C84F83C3042F020021C
:104390002264012070BD000070B5044608B90120F8
:1043A00070BD90F83D3003F0FF021BB980F83C204F
:1043B0000DF0B8F9242384F83D3023681A6822F000
:1043C00001021A601A6842F400421A601A6822F464
:1043D00000421A6000F068FF3F4B65689D4294BF41
:1043E0003E4B3F4B98428CBF00230123002BD6D17C
:1043F0002268394E51683B4BB0FBF3F321F03F018B
:104400001943B542516088BF4FF49676116A88BF50
:10441000734321F03F0184BF4FF47A76B3FBF6F388
:1044200001330B431362D169431E2B4821F44F41E2
:10443000854221F0FF0132D86D0040F6FC70B3FBDD
:10444000F5F30133034242D0C3F30B031943D161A7
:10445000D4E907301168034321F0C0010B43136016
:104460009168D4E9030321F40341034321F0FF01E0
:104470000B439360D4E90530D168034321F0FF0179
:104480000B43D360136843F0010313600020202323
:10449000206484F83D30206384F83E0080E7A06803
:1044A00050B905EB4505B3FBF5F30133C3F30B033B
:1044B0007BB143F40043C9E719206843B3FBF0F331
:1044C0000133C3F30B0323B143F44043BEE704239A
:1044D000BCE70123BAE700BFA08601007F841E006D
:1044E000FF083D0040420F002DE9F043044685B02F
:1044F00098460C9F0D469146FFF7A2F894F83D3080
:10450000202B064604D00225284605B0BDE8F083DE
:1045100000905E49192301222046FFF766FE00281D
:10452000F1D194F83C30012BEDD02168012384F8BF
:104530003C300B68DA075EBF0B6843F001030B6089
:104540000B6823F400630B60212384F83D301023B3
:1045500084F83E3000232364A4F82A80638D2385E9
:104560004B4BE362E36AC4F82490082B04D0012B80
:1045700002D013F5803F04D10B6843F480730B60C5
:1045800002E0236B122BF7D0002200963B464FF03F
:1045900001112046FFF729FE226840B11368DB05B0
:1045A00001D40125B0E74FF400732364F9E72369D0
:1045B000B3F5804F21D105F0FE051561354933462D
:1045C0003A462046FFF751FE05460028E9D1236808
:1045D00003905A6903929B690393039B238DF3B95C
:1045E00021680A6842F400720A60202284F83D20A3
:1045F00084F83C3084F83E3086E7EB1103F0060384
:1046000043F0F0031361244933463A462046FFF74E
:104610002CFE0028C5D12368EDB21D61CEE73246DD
:1046200039462046FFF763FE40B1236C042BB8D116
:104630002268136843F400731360B2E7636A20686A
:104640001A4612F8011B01616262628D013A92B250
:104650006285228DD0F814C0511E89B21CF0040F5F
:1046600021850AD049B15978016102336362638DB3
:10467000013B9BB2023A6385228532463946204689
:10468000FFF75FFE0028A9D0CFE700BF02001000AF
:104690000000FFFF020001000800010010B50268E1
:1046A0008E49936886B0044600938D4B8A4218BFAA
:1046B0004FF0402399680191516802915968039124
:1046C000416831F4007140F09380009B99071AD53E
:1046D000029B1B0617D5436A991C1B884162D36055
:1046E000438D013B9BB24385438D9BB25BB95368BD
:1046F00023F0A0035360438E9BB223B9012380F8BB
:104700004130036D9847019BD80722D5039B59067A
:104710001FD52168714A724B914218BF4FF0402358
:10472000E26AD968901CE0621180628E013A92B20E
:104730006286628E92B262B95A6822F060025A6052
:10474000638D9BB22BB9012384F841302046236D41
:104750009847019B5A0622D5039B9B061FD52368C9
:104760005E495F4A8B4218BF4FF040222046516895
:1047700021F0600151605A6822F0A0025A600022C4
:104780000492DA6804929B680493049B012384F8E2
:104790004130636C43F002036364236E9847009BCF
:1047A000180740F19880029B990640F19480236895
:1047B0004A495A6822F0A0025A60494A8B4218BFFF
:1047C0004FF04022516821F06001516000220592B3
:1047D0009B680593059B012384F84130636C43F08B
:1047E00004036364236E204606B0BDE810401847FA
:1047F000019A92071AD5039A110617D5426A911C9D
:1048000012884162DA60428D013A92B24285428D4D
:1048100092B25AB95A6822F0A0025A60438E9BB2F3
:1048200023B9012380F84130036D9847009BDA07D4
:104830001CD5029B5B0619D5E36A2268981CD168D7
:10484000E0621980638E013B9BB26386638E9BB2EC
:1048500063B9536823F060035360638D9BB22BB937
:10486000012384F841302046236D9847009B580669
:104870001BD5029B990618D522681849536823F066
:1048800060035360164B8A4218BF4FF04023204606
:104890005A6822F0A0025A60012384F84130636C08
:1048A00043F002036364236E9847019B1A0712D5F5
:1048B000039B9B060FD522680849094B8A4218BF03
:1048C0004FF04023596821F0A0015960536823F04C
:1048D000600353607FE706B010BD00BF00380040A2
:1048E00000340040704770470346806BDA6942B974
:1048F00001684B6823F002034B600123428580F876
:104900004130836C1847806B436D1847806B026899
:10491000536823F003035360002343854386012338
:1049200080F84130436C43F008034364036E18473A
:104930001FB503689A68019290F84120042A044642
:1049400036D1019AD10717D55A68520614D5C26AD2
:10495000D96822F8021BC262428E013A92B24286A4
:10496000428E92B242B95A6822F060025A60012324
:1049700080F84130C36C9847019B590618D52368CD
:104980005A68920614D55A6822F060025A600022D2
:104990000292DA6802929B680293029B012384F8D8
:1049A0004130636C43F0020363642046236E9847F2
:1049B00094F84130032B39D1019B9B0719D522680C
:1049C0005368180615D5636A33F8021BD160636219
:1049D000638D013B9BB26385638D9BB24BB953687A
:1049E00023F0A0035360012384F841302046A36CD8
:1049F0009847019B190719D523685A68920615D55F
:104A00005A6822F0A0025A60002203929B68039326
:104A1000039B012384F84130636C43F00403636417
:104A2000236E204604B0BDE81040184704B010BD06
:104A3000704770477047704770470000F8B50446EC
:104A4000002800F09F8090F8413003F0FF02C3B9C6
:104A50004E4B43634E4B83644E4BC3644E4B0365D6
:104A60004E4B43654E4B83654E4BC3654E4B0366C1
:104A7000436E80F840200BB94C4B4366636E204672
:104A800098472268022184F84110D36923F47B639C
:104A900023F00F03D361636911628B42E26873D024
:104AA000A368002A14BF202510250120202B98BFC1
:104AB0006D0000F0B1FC23696269B3F5007F59D144
:104AC000E3680A21002B53D0AD00B0FBF5F34B4354
:104AD000B3FBF2F30A220533B3FBF2F303F0010256
:104AE0005B08991EFD2949D81202134322692068E8
:104AF000DFF8C8C0E668A56913430362D4E9012161
:104B0000C36942EA010703EA0C033B4333432B43E7
:104B100043F40063C361236A012B23D1244B6363F5
:104B2000244F254B984218BF4FF04027B2F5007F25
:104B3000FB6903EA0C03FB614FF002033B621CBFFD
:104B4000B2FA82F35B09F86914BF1B024FF4807359
:104B50003143194380B2294340EA01039BB243F435
:104B60000063FB6100200123606484F841300AE0A7
:104B7000ED00AAE70A21B0FBF5F3A8E7636C43F068
:104B8000100363640120F8BD0022AEE7314900083C
:104B9000354A0008394A0008E7480008334A000847
:104BA000374A0008E5480008314A0008951701080F
:104BB0009D460008003400400038004040F0FFFFF0
:104BC00010B50446A8B10268022380F84130D369C9
:104BD00023F48063D361836E0BB9074B8366204651
:104BE000A36E98470020606484F8410084F8400078
:104BF00010BD0120FCE700BF6518010838B5044668
:104C000000293AD0002A38D090F84130012BD8B290
:104C100047D194F84030012B43D0032384F840005F
:104C2000256884F8413000236364E869616200F01C
:104C300007002823C340D80744BF53009BB2A06B92
:104C400044BF23856385184B5CBF2285628503645E
:104C5000164BC363164BC364238D05F10C029BB244
:104C6000FEF718FE58B1636C43F008036364012338
:104C700084F84130002384F84030012010E023689C
:104C800084F840005A6891075EBF5A6842F00202F9
:104C90005A60DA69520503D4DA6942F48062DA6153
:104CA00038BD0220FCE700BF07490008E9480008BA
:104CB0000D49000890F84020012A03462CD001221B
:104CC00080F8402090F84120032A08D101684A6802
:104CD00022F002024A60002083F84000704790F8FA
:104CE0004120042A04D101684A6822F00102F1E758
:104CF00090F84120052AEED1016808484A6822F060
:104D000003024A60064A814218BF4FF040225168B0
:104D100021F003015160DEE70220704700380040B7
:104D20000034004090F84030012B02463AD0012375
:104D300080F8403090F841100368032910D1596879
:104D400041F002015960D969490558BFD9694FF04E
:104D500000005CBF41F48061D96182F84000704777
:104D600090F84110042903D1596841F00101E9E7A5
:104D700090F841100529E6D159680B4841F003012C
:104D800059600A49834218BF4FF04021486840F0FB
:104D900003004860C86940055EBFC86940F4806090
:104DA000C861D0E70220704700380040003400405E
:104DB0002DE9F341044640B30368DE0710D42368AD
:104DC0009D075BD42368190700F19D8023685A076B
:104DD00000F1BD80A369002B40F0248100202CE06D
:104DE0008D4B9A6802F00C02042A07D09A6802F0F0
:104DF0000C02082A0BD15B68590208D5864B1B6848
:104E00009A03DCD56368002BD9D1012015E06368D3
:104E1000814DB3F5803F13D12B6843F480332B6071
:104E2000FEF70EFC7C4E054633689B03C7D4FEF7A5
:104E300007FC401B6428F7D9032002B0BDE8F081CD
:104E4000B3F5A02F04D12B6843F480232B60E3E754
:104E50002A6822F480322A602A6822F480222A609A
:104E6000002BDDD1FEF7ECFB06462B689F03A6D591
:104E7000FEF7E6FB801B6428F7D9DDE7664B9A68EE
:104E800012F00C0F07D09A6802F00C02082A11D118
:104E90005B685D020ED4604A1368990702D5E36827
:104EA000012BB2D11368216923F0F80343EAC1034F
:104EB000136087E7E268594BB2B101221A60FEF72E
:104EC000BFFB554D06462B689B0707D52B6822690B
:104ED00023F0F80343EAC2032B6073E7FEF7B0FB4D
:104EE000801B0228EFD9A7E71A60FEF7A9FB4A4EFC
:104EF000054633689F077FF565AFFEF7A1FB401BB2
:104F00000228F6D998E76269444B82B10122C3F8BE
:104F1000802EFEF795FB404E0546736F9B073FF5CD
:104F200055AFFEF78DFB401B0228F6D984E7C3F886
:104F3000802EFEF785FB384E0546736F9F077FF581
:104F400045AFFEF77DFB401B0228F6D974E7324BD4
:104F50001A6C12F0805228D101921A6C42F08052E1
:104F60001A641B6C03F080530193019B01272C4DA5
:104F70002B68D8051BD5A368274D012B27D12B6F94
:104F800043F001032B67FEF75BFB234E054641F21E
:104F90008838336F9A0739D5002F3FF41BAF1E4A6C
:104FA000136C23F08053136414E70027DFE72B68AA
:104FB00043F480732B60FEF743FB06462B68D9054C
:104FC000D9D4FEF73DFB801B0228F7D934E7052B27
:104FD00004D12B6F43F004032B67D0E72A6F22F034
:104FE00001022A672A6F22F004022A67002BCAD125
:104FF000FEF726FB41F2883806462B6F9B07CBD580
:10500000FEF71EFB801B4045F7D915E7FEF718FB9E
:10501000401B4045BDD90FE7003802400000474221
:1050200000700040374DAA6802F00C02082A3ED0FA
:10503000022B354B4FF000021A662BD1FEF700FB16
:1050400006462B6899011FD4D4E907321343626ADC
:1050500043EA8213E26A43EA0263A26A5208013A0F
:1050600043EA02436B60284B264D01221A66FEF785
:10507000E7FA04462B689A013FF5B0AEFEF7E0FA76
:10508000001B0228F6D9D7E6FEF7DAFA801B0228C1
:10509000D7D9D1E6FEF7D4FA04462B689B017FF5F9
:1050A0009DAEFEF7CDFA001B0228F6D9C4E6012B0F
:1050B0003FF4ABAE6B68E26903F4800191427FF488
:1050C000A4AE216A03F03F028A427FF49EAE616A79
:1050D00047F6C0721A40B2EB811F7FF496AEA26A07
:1050E000520803F44031013AB1EB024F7FF48DAE28
:1050F000E26A03F07063B3EB026F14BF012000207B
:105100009BE600BF0038024000004742134908B543
:105110008B6803F00C03042B1CD0082B1CD14A68AD
:105120004B68496813F4800314BF0D480D48C1F360
:10513000881118BF002302F03F02A1FB0001FBF71A
:105140001DFD064B5B68C3F3014301335B00B0FBFD
:10515000F3F008BD0248FCE70248FAE700380240D5
:1051600000127A000024F4002DE9F0410D460446B7
:1051700010B90120BDE8F081434B1A6802F0070224
:105180008A4228D321688F072DD4C80740D43E4BCC
:105190001A6802F00702AA4265D8226851076BD448
:1051A000130707D5394A2169936823F4604343EA1A
:1051B000C1039360FFF7AAFF344B354A9B68C3F3E2
:1051C0000313D35CD840334B1860334B1868FEF799
:1051D000EDF90020CEE7CAB21A701B6803F007038E
:1051E0008B42C6D1CEE7294B11F0040F1EBF9A683F
:1051F00042F4E0529A600E0742BF9A6842F460425D
:105200009A609A68A06822F0F00202439A60BCE7B4
:1052100062681E4B012A1CD11B6813F4003FA8D002
:105220001A4EB36823F003031343B360FEF708FA82
:1052300041F288380746B368626803F00C03B3EBA9
:10524000820FA4D0FEF7FCF9C01B4045F3D9032020
:1052500090E7911E01291B6802D813F0007FDEE75A
:1052600013F0020FDBE7EAB21A701B6803F00703C2
:10527000AB427FF47EAF90E70449E0688B6823F48B
:10528000E05303438B608BE7003C02400038024050
:10529000D8AC02084C020020CC010020014B186859
:1052A000704700BF4C020020044B054A9B68C3F3C3
:1052B0008223D35C034A1068D8407047003802400C
:1052C000D0AC02084C020020044B054A9B68C3F393
:1052D0004233D35C034A1068D8407047003802401C
:1052E000D0AC02084C020020036813F0050FF7B59C
:1052F000044605D123689B072AD4002003B0F0BDE3
:10530000424B434E00229A66FEF79AF905463368EF
:105310001F0116D4D4E901231B0743EA8213C6F800
:1053200084303A4B3A4E01229A66FEF789F90546D7
:1053300033681801DED4FEF783F9401B0228F7D941
:1053400004E0FEF77DF9401B0228E0D90320D5E7F1
:10535000002301932E4B2F4D1A6C42F080521A6499
:105360001B6C03F080530193019B2B6843F4807303
:105370002B60FEF765F906462B68D9051BD5244D31
:10538000E2682B6F13F440731BD1E36803F440729F
:10539000B2F5407F1E4A34D1916823F0704021F469
:1053A000F81120F4407001439160116FC3F30B03B7
:1053B0000B431367A1E7FEF743F9801B0228DBD9F3
:1053C000C4E702F440729342DFD02B6F0F4A0121F1
:1053D000C2F8401E23F440730021C2F8401E2B6720
:1053E0002B6FDA07D1D5FEF72BF941F28837064645
:1053F0002B6F9B07C9D4FEF723F9801BB842F7D95E
:10540000A4E7916821F4F811CEE700BF00004742FD
:10541000003802400070004001281BD10F4B9A68F1
:10542000120219D45A6812F4800F5A6814BF0C4B38
:105430000C4B02F03F02B3FBF2F3084AD2F88400AF
:10544000D2F88420C0F388105843C2F30273B0FB33
:10545000F3F070470020704703487047003802405F
:1054600000127A000024F4000080BB0038B5036805
:10547000094ADA600446FEF7E3F805462368DB686C
:105480009B0601D5002038BDFEF7DAF8401BB0F5C9
:105490007A7FF3D90320F6E75F7F0100036870B5D8
:1054A000DC6814F04004054617D1DA6842F0800247
:1054B000DA60FEF7C5F806462B68DB685B0600D4A9
:1054C0000CB1204670BDFEF7BBF8801BB0F57A7FAB
:1054D00082BF04236B770124EEE70024F1E7036821
:1054E000DA6822F0800210B5DA609B689B060446F9
:1054F00001D5002010BDFFF7B9FF0028F9D0042323
:1055000063770120F6E710B50446002841D0437FB9
:1055100003F0FF0213B902770CF040FA022363771D
:105520002368DA68D20603D501236377002010BD13
:10553000CA225A6253225A622046FFF7AFFF10BBBD
:10554000236820699A6822F4E00222F040029A60FF
:10555000626899680243606902430A439A60E2689C
:105560001A611A69A16842EA01421A612046FFF7EE
:10557000B6FF40B92368A1691A6C22F480221A642C
:105580001A6C0A431A642368FF225A620028CBD09F
:10559000CDE70120CBE70023092803D840EA031018
:1055A000C0B270470A380133C0B2F5E72DE9F041C7
:1055B000037F012B06460F464FF0020041D0012326
:1055C00031683377707738787D78BC788B68002ABB
:1055D00039D113F0400308BFFB70FFF7DCFF8046B2
:1055E0002846FFF7D8FF02462046FFF7D4FFFB7896
:1055F00040EA835343EA084343EA0224CA234B6246
:1056000053234B623046FFF749FFA8B9326804F0D4
:105610007F3424F0FE441460936823F48023936065
:10562000D7E90330916803430B4393603046FFF79B
:1056300056FF08B9012373773368FF225A620023AB
:105640003377BDE8F08113F0400308BFFB702D02F3
:10565000FA7845EA004545EA040343EA8254CDE777
:10566000F8B5037F012B05464FF0020027D0012338
:105670002B7768770E78C8784C788F787603FAB1F4
:1056800046EA00433B4343EA04242B68CA225A6299
:1056900053225A622846FFF701FF58B92A6824F0BE
:1056A0007F4424F0C00454602846FFF718FF08B96F
:1056B00001236B772B68FF225A6200232B77F8BDFA
:1056C000E30642BF24F010040A344C70FFF763FF76
:1056D00004464878FFF75FFF02463846FFF75BFF56
:1056E00040EA060343EA044343EA0224CDE7030900
:1056F00003EB830300F00F0000EB4300C0B27047E0
:1057000038B50368986A486018691B68C0F30E00D2
:10571000C3F3062503F07F048860C3F30540C3F399
:10572000805308704D708C70CB7052B9FFF7DFFF5B
:1057300008702846FFF7DBFF48702046FFF7D7FFC9
:105740008870002038BD38B503685B68C3F3074034
:10575000C3F3042503F03F04C3F34233C8704D7014
:105760008C700B7052B9FFF7C2FFC8702846FFF764
:10577000BEFF48702046FFF7BAFF8870002038BD92
:105780000368503343F8212070470368503353F8BF
:1057900021007047836B1A68D36B43F48073D36323
:1057A000704710B5846B236B2068822B09D102F0FF
:1057B000D3FA30B1A36B0343A3632046D4F88C30F3
:1057C00098472368DA6A22F00802DA6240F23A5215
:1057D0009A63012384F83430002323632046D4F8ED
:1057E0008830BDE810401847F0B589B005460E4630
:1057F000FDF726FF0023074608212868CDE900337E
:1058000002F02CFA0446D8B9296D2868090402F080
:10581000D6FA0446A0B94FF0FF310823CDE90213B0
:1058200030200223CDE9040302A90123286806944D
:10583000079302F049F9286802F0F3FA044690B1A0
:10584000204609B0F0BD436B9A0212D502F018F958
:1058500008AB03EB8403013443F8200CFDF7F0FEA2
:10586000C01B013026D02868436B13F02A0FEAD002
:1058700002E0436B9B04F1D4436B190702D4436BE2
:105880009A0502D508248463DAE7436B9B0701D5A8
:105890000224F8E7446B14F0200401D02024F2E73E
:1058A00040F23A538363019B1BBA3360009B1BBADF
:1058B0007360C5E74FF00044C2E770477047704718
:1058C000704700002DE9F043154687B004461F4697
:1058D0000A4641B9836B43F00063A3630126304657
:1058E00007B0BDE8F08390F83430012B5FFA83F8FD
:1058F00070D100218163C06DEB19834203D9A36B82
:1059000043F00073E9E72668206C032384F8343001
:10591000F162F36B43F44A7343F00203F3632E4BDB
:10592000C3632E4B8160C0E9133101680B684FEAF5
:10593000472923F0C0030B6006F180014FEA990369
:10594000FDF7A8FF064668B12368DA6B22F495726A
:10595000DA63234A9A63A36B43F08043A36384F81A
:105960003480BBE71F4B2068C3F88C85636C012B28
:105970004FF0FF33CDE900394FF090024FF00203B2
:10598000CDE902234FF000014FF00103CDE90413EC
:10599000694618BF6D0202F097F8012F13D98223D0
:1059A00020682363294602F08BF9002897D02368EA
:1059B0000B4A9A63A36B0343A363012384F8343037
:1059C000002323638AE7812320682363294602F0AA
:1059D0005EF9EAE7022682E7A3570008AD600008F7
:1059E000FF054000008025422DE9F0410F4686B0BA
:1059F000044611461E4647B9836B43F00063A36318
:105A00000127384606B0BDE8F08190F83430012B0C
:105A10006DD100228263C06D8B19834203D9A36BC1
:105A200043F00073EBE72068324D032384F83430F1
:105A3000C262C36B43F4067343F00203C363E36BB8
:105A4000DD632D4DC3E91352636C012B18BF49026E
:105A5000012E11D9A023236302F064F922680546C0
:105A600078B1264B9363A36B0343A363012384F8AC
:105A7000343000232363C3E79023236302F039F912
:105A8000ECE7E06B1E4B01684FF00108C3F88C8512
:105A9000402383600B6823F0C00343F04003760289
:105AA0000B6080323946B308FDF7F4FE074680B13B
:105AB0002268D36B23F4067323F00203D3630F4BE6
:105AC0009363A36B43F08043A36384F8348025631E
:105AD00096E74FF0FF33CDE9003620689023694602
